{
  "transactions": [
    {
      "hash": "0x7b7988f288319163ed10b873c8d2ab5f7df8d881c4fd18ec9f023c020d800ed7",
      "transactionType": "CALL",
      "contractName": "AccessManager",
      "contractAddress": "0x8cab5e4417432714a86788f755cc39df6c372b5f",
      "function": "setTargetFunctionRole(address,bytes4[],uint64)",
      "arguments": [
        "0x53bfF3931549b7818A295ce7cABe33efcB0b372D",
        "[0x6f1625fd, 0xdf6f5140, 0xa9ed9cb8]",
        "3043777320231671623"
      ],
      "transaction": {
        "from": "0xfe1748f511583f6c9349f672593e6312bedfce40",
        "to": "0x8cab5e4417432714a86788f755cc39df6c372b5f",
        "gas": "0x22169",
        "value": "0x0",
        "input": "0x08d6122d00000000000000000000000053bff3931549b7818a295ce7cabe33efcb0b372d00000000000000000000000000000000000000000000000000000000000000600000000000000000000000000000000000000000000000002a3dab589bcc974700000000000000000000000000000000000000000000000000000000000000036f1625fd00000000000000000000000000000000000000000000000000000000df6f514000000000000000000000000000000000000000000000000000000000a9ed9cb800000000000000000000000000000000000000000000000000000000",
        "nonce": "0xf",
        "chainId": "0x88bb0"
      },
      "additionalContracts": [],
      "isFixedGasLimit": false
    },
    {
      "hash": "0x5848775719762268081c56bbb7f54aa6370447e082f4608932168642ed8dd385",
      "transactionType": "CALL",
      "contractName": "AccessManager",
      "contractAddress": "0x8cab5e4417432714a86788f755cc39df6c372b5f",
      "function": "grantRole(uint64,address,uint32)",
      "arguments": [
        "3043777320231671623",
        "0xd3b978148e1Ee61b528354f72b39451c46dCA57C",
        "0"
      ],
      "transaction": {
        "from": "0xfe1748f511583f6c9349f672593e6312bedfce40",
        "to": "0x8cab5e4417432714a86788f755cc39df6c372b5f",
        "gas": "0x13289",
        "value": "0x0",
        "input": "0x25c471a00000000000000000000000000000000000000000000000002a3dab589bcc9747000000000000000000000000d3b978148e1ee61b528354f72b39451c46dca57c0000000000000000000000000000000000000000000000000000000000000000",
        "nonce": "0x10",
        "chainId": "0x88bb0"
      },
      "additionalContracts": [],
      "isFixedGasLimit": false
    }
  ],
  "receipts": [
    {
      "status": "0x1",
      "cumulativeGasUsed": "0xe1ed4",
      "logs": [
        {
          "address": "0x8cab5e4417432714a86788f755cc39df6c372b5f",
          "topics": [
            "0x9ea6790c7dadfd01c9f8b9762b3682607af2c7e79e05a9f9fdf5580dde949151",
            "0x00000000000000000000000053bff3931549b7818a295ce7cabe33efcb0b372d",
            "0x0000000000000000000000000000000000000000000000002a3dab589bcc9747"
          ],
          "data": "0x6f1625fd00000000000000000000000000000000000000000000000000000000",
          "blockHash": "0xb69ff013113bdf8fb0c86afc3963b5f4785d45698612b5c3f2dbfb099de941d5",
          "blockNumber": "0x2980a3",
          "blockTimestamp": "0x69f304d4",
          "transactionHash": "0x5848775719762268081c56bbb7f54aa6370447e082f4608932168642ed8dd385",
          "transactionIndex": "0x2",
          "logIndex": "0x7",
          "removed": false
        },
        {
          "address": "0x8cab5e4417432714a86788f755cc39df6c372b5f",
          "topics": [
            "0x9ea6790c7dadfd01c9f8b9762b3682607af2c7e79e05a9f9fdf5580dde949151",
            "0x00000000000000000000000053bff3931549b7818a295ce7cabe33efcb0b372d",
            "0x0000000000000000000000000000000000000000000000002a3dab589bcc9747"
          ],
          "data": "0xdf6f514000000000000000000000000000000000000000000000000000000000",
          "blockHash": "0xb69ff013113bdf8fb0c86afc3963b5f4785d45698612b5c3f2dbfb099de941d5",
          "blockNumber": "0x2980a3",
          "blockTimestamp": "0x69f304d4",
          "transactionHash": "0x5848775719762268081c56bbb7f54aa6370447e082f4608932168642ed8dd385",
          "transactionIndex": "0x2",
          "logIndex": "0x8",
          "removed": false
        },
        {
          "address": "0x8cab5e4417432714a86788f755cc39df6c372b5f",
          "topics": [
            "0x9ea6790c7dadfd01c9f8b9762b3682607af2c7e79e05a9f9fdf5580dde949151",
            "0x00000000000000000000000053bff3931549b7818a295ce7cabe33efcb0b372d",
            "0x0000000000000000000000000000000000000000000000002a3dab589bcc9747"
          ],
          "data": "0xa9ed9cb800000000000000000000000000000000000000000000000000000000",
          "blockHash": "0xb69ff013113bdf8fb0c86afc3963b5f4785d45698612b5c3f2dbfb099de941d5",
          "blockNumber": "0x2980a3",
          "blockTimestamp": "0x69f304d4",
          "transactionHash": "0x5848775719762268081c56bbb7f54aa6370447e082f4608932168642ed8dd385",
          "transactionIndex": "0x2",
          "logIndex": "0x9",
          "removed": false
        }
      ],
      "logsBloom": "0x00000004000080000000000400000000000000000400000000000000000000000200000000000000000000000000000000000000000000000000000000000000000000000000000000000000000008000000000000000000000000000000000000000000000000000000000000000000000000000000000000000000000000000000000000000000000000000000000000000000040000000080000200000000000000000000000010000000000000000000000000000000000000000000000000000004000000000000000000200000000000000000000000000000000000000000000000000000000000000000000000000000000000000000000000000000",
      "type": "0x2",
      "transactionHash": "0x5848775719762268081c56bbb7f54aa6370447e082f4608932168642ed8dd385",
      "transactionIndex": "0x2",
      "blockHash": "0xb69ff013113bdf8fb0c86afc3963b5f4785d45698612b5c3f2dbfb099de941d5",
      "blockNumber": "0x2980a3",
      "gasUsed": "0x18adf",
      "effectiveGasPrice": "0x3b9aca07",
      "from": "0xfe1748f511583f6c9349f672593e6312bedfce40",
      "to": "0x8cab5e4417432714a86788f755cc39df6c372b5f",
      "contractAddress": null
    },
    {
      "status": "0x1",
      "cumulativeGasUsed": "0xef06d",
      "logs": [
        {
          "address": "0x8cab5e4417432714a86788f755cc39df6c372b5f",
          "topics": [
            "0xf98448b987f1428e0e230e1f3c6e2ce15b5693eaf31827fbd0b1ec4b424ae7cf",
            "0x0000000000000000000000000000000000000000000000002a3dab589bcc9747",
            "0x000000000000000000000000d3b978148e1ee61b528354f72b39451c46dca57c"
          ],
          "data": "0x00000000000000000000000000000000000000000000000000000000000000000000000000000000000000000000000000000000000000000000000069f304d40000000000000000000000000000000000000000000000000000000000000001",
          "blockHash": "0xb69ff013113bdf8fb0c86afc3963b5f4785d45698612b5c3f2dbfb099de941d5",
          "blockNumber": "0x2980a3",
          "blockTimestamp": "0x69f304d4",
          "transactionHash": "0x7b7988f288319163ed10b873c8d2ab5f7df8d881c4fd18ec9f023c020d800ed7",
          "transactionIndex": "0x3",
          "logIndex": "0xa",
          "removed": false
        }
      ],
      "logsBloom": "0x0000000000000000000000040000000000000000040000000000000000000000000000000000000000000000000000000000000000000000000000000000000000000000000000000000000000000a000000000000000000000000000000000000000000000000000000000000000000000000000000000000000020000000000000000000000000000000000000000008000000040000000000000000000000000000000000000010002000000000000000000000000008000000000000000000000004000000000000000000000000000000000000000000000000000000000000000000000000080000000000000000000000000000000000000000000000",
      "type": "0x2",
      "transactionHash": "0x7b7988f288319163ed10b873c8d2ab5f7df8d881c4fd18ec9f023c020d800ed7",
      "transactionIndex": "0x3",
      "blockHash": "0xb69ff013113bdf8fb0c86afc3963b5f4785d45698612b5c3f2dbfb099de941d5",
      "blockNumber": "0x2980a3",
      "gasUsed": "0xd199",
      "effectiveGasPrice": "0x3b9aca07",
      "from": "0xfe1748f511583f6c9349f672593e6312bedfce40",
      "to": "0x8cab5e4417432714a86788f755cc39df6c372b5f",
      "contractAddress": null
    }
  ],
  "libraries": [],
  "pending": [],
  "returns": {},
  "timestamp": 1777534167184,
  "chain": 560048,
  "commit": "ad7ebe8"
}